{
    "_format": "hh-sol-artifact-1",
    "contractName": "WavePortal",
    "sourceName": "contracts/WavePortal.sol",
    "abi": [
        {
            "inputs": [],
            "stateMutability": "nonpayable",
            "type": "constructor"
        },
        {
            "inputs": [
                {
                    "internalType": "address",
                    "name": "_addr",
                    "type": "address"
                }
            ],
            "name": "getTotalWaves",
            "outputs": [
                {
                    "internalType": "uint256",
                    "name": "",
                    "type": "uint256"
                }
            ],
            "stateMutability": "view",
            "type": "function"
        },
        {
            "inputs": [
                {
                    "internalType": "address",
                    "name": "_addr",
                    "type": "address"
                }
            ],
            "name": "getUserMap",
            "outputs": [
                {
                    "components": [
                        {
                            "internalType": "uint256",
                            "name": "number",
                            "type": "uint256"
                        },
                        {
                            "internalType": "bool",
                            "name": "isAuthorized",
                            "type": "bool"
                        }
                    ],
                    "internalType": "struct WavePortal.Data",
                    "name": "",
                    "type": "tuple"
                }
            ],
            "stateMutability": "view",
            "type": "function"
        },
        {
            "inputs": [
                {
                    "internalType": "address",
                    "name": "_addr",
                    "type": "address"
                }
            ],
            "name": "toggleAuthorization",
            "outputs": [],
            "stateMutability": "nonpayable",
            "type": "function"
        },
        {
            "inputs": [
                {
                    "internalType": "address",
                    "name": "",
                    "type": "address"
                }
            ],
            "name": "userMap",
            "outputs": [
                {
                    "internalType": "uint256",
                    "name": "number",
                    "type": "uint256"
                },
                {
                    "internalType": "bool",
                    "name": "isAuthorized",
                    "type": "bool"
                }
            ],
            "stateMutability": "view",
            "type": "function"
        },
        {
            "inputs": [
                {
                    "internalType": "address",
                    "name": "_addr",
                    "type": "address"
                }
            ],
            "name": "wave",
            "outputs": [],
            "stateMutability": "nonpayable",
            "type": "function"
        }
    ],
    "bytecode": "0x608060405234801561001057600080fd5b5061003c604051806060016040528060338152602001610bac6033913961004160201b6104661760201c565b6101bb565b6100dd816040516024016100559190610199565b6040516020818303038152906040527f41304fac000000000000000000000000000000000000000000000000000000007bffffffffffffffffffffffffffffffffffffffffffffffffffffffff19166020820180517bffffffffffffffffffffffffffffffffffffffffffffffffffffffff83818316178352505050506100e060201b60201c565b50565b60008151905060006a636f6e736f6c652e6c6f679050602083016000808483855afa5050505050565b600081519050919050565b600082825260208201905092915050565b60005b83811015610143578082015181840152602081019050610128565b60008484015250505050565b6000601f19601f8301169050919050565b600061016b82610109565b6101758185610114565b9350610185818560208601610125565b61018e8161014f565b840191505092915050565b600060208201905081810360008301526101b38184610160565b905092915050565b6109e2806101ca6000396000f3fe608060405234801561001057600080fd5b50600436106100575760003560e01c806328b9d0061461005c5780632bcc23f814610078578063a0f5a7e7146100a9578063ad73caed146100d9578063deed6a9f146100f5575b600080fd5b610076600480360381019061007191906106e2565b610125565b005b610092600480360381019061008d91906106e2565b610259565b6040516100a0929190610743565b60405180910390f35b6100c360048036038101906100be91906106e2565b61028a565b6040516100d091906107b9565b60405180910390f35b6100f360048036038101906100ee91906106e2565b610308565b005b61010f600480360381019061010a91906106e2565b6103b5565b60405161011c91906107d4565b60405180910390f35b600160008273ffffffffffffffffffffffffffffffffffffffff1673ffffffffffffffffffffffffffffffffffffffff16815260200190815260200160002060010160009054906101000a900460ff16156102175760018060008373ffffffffffffffffffffffffffffffffffffffff1673ffffffffffffffffffffffffffffffffffffffff16815260200190815260200160002060000160008282546101cc919061081e565b925050819055506102126040518060400160405280600d81526020017f2573206861732077617665642100000000000000000000000000000000000000815250336104ff565b610256565b6102556040518060400160405280601e81526020017f556e617574686f72697a656420757365722063616e6e6f742077617665210000815250610466565b5b50565b60016020528060005260406000206000915090508060000154908060010160009054906101000a900460ff16905082565b610292610663565b600160008373ffffffffffffffffffffffffffffffffffffffff1673ffffffffffffffffffffffffffffffffffffffff168152602001908152602001600020604051806040016040529081600082015481526020016001820160009054906101000a900460ff1615151515815250509050919050565b600160008273ffffffffffffffffffffffffffffffffffffffff1673ffffffffffffffffffffffffffffffffffffffff16815260200190815260200160002060010160009054906101000a900460ff1615600160008373ffffffffffffffffffffffffffffffffffffffff1673ffffffffffffffffffffffffffffffffffffffff16815260200190815260200160002060010160006101000a81548160ff02191690831515021790555050565b600061041c6040518060600160405280602b8152602001610982602b9139600160008573ffffffffffffffffffffffffffffffffffffffff1673ffffffffffffffffffffffffffffffffffffffff168152602001908152602001600020600001548461059b565b600160008373ffffffffffffffffffffffffffffffffffffffff1673ffffffffffffffffffffffffffffffffffffffff168152602001908152602001600020600001549050919050565b6104fc8160405160240161047a91906108e2565b6040516020818303038152906040527f41304fac000000000000000000000000000000000000000000000000000000007bffffffffffffffffffffffffffffffffffffffffffffffffffffffff19166020820180517bffffffffffffffffffffffffffffffffffffffffffffffffffffffff838183161783525050505061063a565b50565b6105978282604051602401610515929190610913565b6040516020818303038152906040527f319af333000000000000000000000000000000000000000000000000000000007bffffffffffffffffffffffffffffffffffffffffffffffffffffffff19166020820180517bffffffffffffffffffffffffffffffffffffffffffffffffffffffff838183161783525050505061063a565b5050565b6106358383836040516024016105b393929190610943565b6040516020818303038152906040527f1c7ec448000000000000000000000000000000000000000000000000000000007bffffffffffffffffffffffffffffffffffffffffffffffffffffffff19166020820180517bffffffffffffffffffffffffffffffffffffffffffffffffffffffff838183161783525050505061063a565b505050565b60008151905060006a636f6e736f6c652e6c6f679050602083016000808483855afa5050505050565b6040518060400160405280600081526020016000151581525090565b600080fd5b600073ffffffffffffffffffffffffffffffffffffffff82169050919050565b60006106af82610684565b9050919050565b6106bf816106a4565b81146106ca57600080fd5b50565b6000813590506106dc816106b6565b92915050565b6000602082840312156106f8576106f761067f565b5b6000610706848285016106cd565b91505092915050565b6000819050919050565b6107228161070f565b82525050565b60008115159050919050565b61073d81610728565b82525050565b60006040820190506107586000830185610719565b6107656020830184610734565b9392505050565b6107758161070f565b82525050565b61078481610728565b82525050565b6040820160008201516107a0600085018261076c565b5060208201516107b3602085018261077b565b50505050565b60006040820190506107ce600083018461078a565b92915050565b60006020820190506107e96000830184610719565b92915050565b7f4e487b7100000000000000000000000000000000000000000000000000000000600052601160045260246000fd5b60006108298261070f565b91506108348361070f565b925082820190508082111561084c5761084b6107ef565b5b92915050565b600081519050919050565b600082825260208201905092915050565b60005b8381101561088c578082015181840152602081019050610871565b60008484015250505050565b6000601f19601f8301169050919050565b60006108b482610852565b6108be818561085d565b93506108ce81856020860161086e565b6108d781610898565b840191505092915050565b600060208201905081810360008301526108fc81846108a9565b905092915050565b61090d816106a4565b82525050565b6000604082019050818103600083015261092d81856108a9565b905061093c6020830184610904565b9392505050565b6000606082019050818103600083015261095d81866108a9565b905061096c6020830185610719565b6109796040830184610904565b94935050505056fe5765206861766520256420746f74616c20776176657320666f72207468697320616464726573733a202573a2646970667358221220e36216198d46b878b30cfd2a87b6d3a78badb151d4462c03808f708319a3e65d64736f6c63430008110033596f20796f2c2049276d206120736d61727420636f6e74726163742067657474696e6720696e697469616c697a656421203a29",
    "linkReferences": {},
    "deployedLinkReferences": {}
}